{
  "_format": "hh-sol-artifact-1",
  "contractName": "ManicNFT",
  "sourceName": "contracts/NFT.sol",
  "abi": [
    {
      "inputs": [],
      "stateMutability": "nonpayable",
      "type": "constructor"
    },
    {
      "inputs": [
        {
          "internalType": "address",
          "name": "sender",
          "type": "address"
        },
        {
          "internalType": "uint256",
          "name": "tokenId",
          "type": "uint256"
        },
        {
          "internalType": "address",
          "name": "owner",
          "type": "address"
        }
      ],
      "name": "ERC721IncorrectOwner",
      "type": "error"
    },
    {
      "inputs": [
        {
          "internalType": "address",
          "name": "operator",
          "type": "address"
        },
        {
          "internalType": "uint256",
          "name": "tokenId",
          "type": "uint256"
        }
      ],
      "name": "ERC721InsufficientApproval",
      "type": "error"
    },
    {
      "inputs": [
        {
          "internalType": "address",
          "name": "approver",
          "type": "address"
        }
      ],
      "name": "ERC721InvalidApprover",
      "type": "error"
    },
    {
      "inputs": [
        {
          "internalType": "address",
          "name": "operator",
          "type": "address"
        }
      ],
      "name": "ERC721InvalidOperator",
      "type": "error"
    },
    {
      "inputs": [
        {
          "internalType": "address",
          "name": "owner",
          "type": "address"
        }
      ],
      "name": "ERC721InvalidOwner",
      "type": "error"
    },
    {
      "inputs": [
        {
          "internalType": "address",
          "name": "receiver",
          "type": "address"
        }
      ],
      "name": "ERC721InvalidReceiver",
      "type": "error"
    },
    {
      "inputs": [
        {
          "internalType": "address",
          "name": "sender",
          "type": "address"
        }
      ],
      "name": "ERC721InvalidSender",
      "type": "error"
    },
    {
      "inputs": [
        {
          "internalType": "uint256",
          "name": "tokenId",
          "type": "uint256"
        }
      ],
      "name": "ERC721NonexistentToken",
      "type": "error"
    },
    {
      "inputs": [
        {
          "internalType": "address",
          "name": "owner",
          "type": "address"
        }
      ],
      "name": "OwnableInvalidOwner",
      "type": "error"
    },
    {
      "inputs": [
        {
          "internalType": "address",
          "name": "account",
          "type": "address"
        }
      ],
      "name": "OwnableUnauthorizedAccount",
      "type": "error"
    },
    {
      "anonymous": false,
      "inputs": [
        {
          "indexed": true,
          "internalType": "address",
          "name": "owner",
          "type": "address"
        },
        {
          "indexed": true,
          "internalType": "address",
          "name": "approved",
          "type": "address"
        },
        {
          "indexed": true,
          "internalType": "uint256",
          "name": "tokenId",
          "type": "uint256"
        }
      ],
      "name": "Approval",
      "type": "event"
    },
    {
      "anonymous": false,
      "inputs": [
        {
          "indexed": true,
          "internalType": "address",
          "name": "owner",
          "type": "address"
        },
        {
          "indexed": true,
          "internalType": "address",
          "name": "operator",
          "type": "address"
        },
        {
          "indexed": false,
          "internalType": "bool",
          "name": "approved",
          "type": "bool"
        }
      ],
      "name": "ApprovalForAll",
      "type": "event"
    },
    {
      "anonymous": false,
      "inputs": [
        {
          "indexed": true,
          "internalType": "address",
          "name": "recipient",
          "type": "address"
        },
        {
          "indexed": true,
          "internalType": "uint256",
          "name": "tokenId",
          "type": "uint256"
        }
      ],
      "name": "NFTMinted",
      "type": "event"
    },
    {
      "anonymous": false,
      "inputs": [
        {
          "indexed": true,
          "internalType": "address",
          "name": "previousOwner",
          "type": "address"
        },
        {
          "indexed": true,
          "internalType": "address",
          "name": "newOwner",
          "type": "address"
        }
      ],
      "name": "OwnershipTransferred",
      "type": "event"
    },
    {
      "anonymous": false,
      "inputs": [
        {
          "indexed": true,
          "internalType": "address",
          "name": "from",
          "type": "address"
        },
        {
          "indexed": true,
          "internalType": "address",
          "name": "to",
          "type": "address"
        },
        {
          "indexed": true,
          "internalType": "uint256",
          "name": "tokenId",
          "type": "uint256"
        }
      ],
      "name": "Transfer",
      "type": "event"
    },
    {
      "inputs": [
        {
          "internalType": "address",
          "name": "to",
          "type": "address"
        },
        {
          "internalType": "uint256",
          "name": "tokenId",
          "type": "uint256"
        }
      ],
      "name": "approve",
      "outputs": [],
      "stateMutability": "nonpayable",
      "type": "function"
    },
    {
      "inputs": [
        {
          "internalType": "address",
          "name": "owner",
          "type": "address"
        }
      ],
      "name": "balanceOf",
      "outputs": [
        {
          "internalType": "uint256",
          "name": "",
          "type": "uint256"
        }
      ],
      "stateMutability": "view",
      "type": "function"
    },
    {
      "inputs": [
        {
          "internalType": "uint256",
          "name": "tokenId",
          "type": "uint256"
        }
      ],
      "name": "getApproved",
      "outputs": [
        {
          "internalType": "address",
          "name": "",
          "type": "address"
        }
      ],
      "stateMutability": "view",
      "type": "function"
    },
    {
      "inputs": [
        {
          "internalType": "address",
          "name": "owner",
          "type": "address"
        },
        {
          "internalType": "address",
          "name": "operator",
          "type": "address"
        }
      ],
      "name": "isApprovedForAll",
      "outputs": [
        {
          "internalType": "bool",
          "name": "",
          "type": "bool"
        }
      ],
      "stateMutability": "view",
      "type": "function"
    },
    {
      "inputs": [
        {
          "internalType": "address",
          "name": "recipient",
          "type": "address"
        }
      ],
      "name": "mintNFT",
      "outputs": [
        {
          "internalType": "uint256",
          "name": "",
          "type": "uint256"
        }
      ],
      "stateMutability": "nonpayable",
      "type": "function"
    },
    {
      "inputs": [],
      "name": "name",
      "outputs": [
        {
          "internalType": "string",
          "name": "",
          "type": "string"
        }
      ],
      "stateMutability": "view",
      "type": "function"
    },
    {
      "inputs": [],
      "name": "owner",
      "outputs": [
        {
          "internalType": "address",
          "name": "",
          "type": "address"
        }
      ],
      "stateMutability": "view",
      "type": "function"
    },
    {
      "inputs": [
        {
          "internalType": "uint256",
          "name": "tokenId",
          "type": "uint256"
        }
      ],
      "name": "ownerOf",
      "outputs": [
        {
          "internalType": "address",
          "name": "",
          "type": "address"
        }
      ],
      "stateMutability": "view",
      "type": "function"
    },
    {
      "inputs": [],
      "name": "renounceOwnership",
      "outputs": [],
      "stateMutability": "nonpayable",
      "type": "function"
    },
    {
      "inputs": [
        {
          "internalType": "address",
          "name": "from",
          "type": "address"
        },
        {
          "internalType": "address",
          "name": "to",
          "type": "address"
        },
        {
          "internalType": "uint256",
          "name": "tokenId",
          "type": "uint256"
        }
      ],
      "name": "safeTransferFrom",
      "outputs": [],
      "stateMutability": "nonpayable",
      "type": "function"
    },
    {
      "inputs": [
        {
          "internalType": "address",
          "name": "from",
          "type": "address"
        },
        {
          "internalType": "address",
          "name": "to",
          "type": "address"
        },
        {
          "internalType": "uint256",
          "name": "tokenId",
          "type": "uint256"
        },
        {
          "internalType": "bytes",
          "name": "data",
          "type": "bytes"
        }
      ],
      "name": "safeTransferFrom",
      "outputs": [],
      "stateMutability": "nonpayable",
      "type": "function"
    },
    {
      "inputs": [
        {
          "internalType": "address",
          "name": "operator",
          "type": "address"
        },
        {
          "internalType": "bool",
          "name": "approved",
          "type": "bool"
        }
      ],
      "name": "setApprovalForAll",
      "outputs": [],
      "stateMutability": "nonpayable",
      "type": "function"
    },
    {
      "inputs": [
        {
          "internalType": "bytes4",
          "name": "interfaceId",
          "type": "bytes4"
        }
      ],
      "name": "supportsInterface",
      "outputs": [
        {
          "internalType": "bool",
          "name": "",
          "type": "bool"
        }
      ],
      "stateMutability": "view",
      "type": "function"
    },
    {
      "inputs": [],
      "name": "symbol",
      "outputs": [
        {
          "internalType": "string",
          "name": "",
          "type": "string"
        }
      ],
      "stateMutability": "view",
      "type": "function"
    },
    {
      "inputs": [],
      "name": "tokenCounter",
      "outputs": [
        {
          "internalType": "uint256",
          "name": "",
          "type": "uint256"
        }
      ],
      "stateMutability": "view",
      "type": "function"
    },
    {
      "inputs": [
        {
          "internalType": "uint256",
          "name": "tokenId",
          "type": "uint256"
        }
      ],
      "name": "tokenURI",
      "outputs": [
        {
          "internalType": "string",
          "name": "",
          "type": "string"
        }
      ],
      "stateMutability": "view",
      "type": "function"
    },
    {
      "inputs": [
        {
          "internalType": "address",
          "name": "from",
          "type": "address"
        },
        {
          "internalType": "address",
          "name": "to",
          "type": "address"
        },
        {
          "internalType": "uint256",
          "name": "tokenId",
          "type": "uint256"
        }
      ],
      "name": "transferFrom",
      "outputs": [],
      "stateMutability": "nonpayable",
      "type": "function"
    },
    {
      "inputs": [
        {
          "internalType": "address",
          "name": "newOwner",
          "type": "address"
        }
      ],
      "name": "transferOwnership",
      "outputs": [],
      "stateMutability": "nonpayable",
      "type": "function"
    }
  ],
  "bytecode": "0x608060405234801561001057600080fd5b50336040518060400160405280600881526020017f4d616e69634e46540000000000000000000000000000000000000000000000008152506040518060400160405280600481526020017f4d4e465400000000000000000000000000000000000000000000000000000000815250816000908161008d9190610445565b50806001908161009d9190610445565b505050600073ffffffffffffffffffffffffffffffffffffffff168173ffffffffffffffffffffffffffffffffffffffff16036101125760006040517f1e4fbdf70000000000000000000000000000000000000000000000000000000081526004016101099190610558565b60405180910390fd5b6101218161012f60201b60201c565b506001600781905550610573565b6000600660009054906101000a900473ffffffffffffffffffffffffffffffffffffffff16905081600660006101000a81548173ffffffffffffffffffffffffffffffffffffffff021916908373ffffffffffffffffffffffffffffffffffffffff1602179055508173ffffffffffffffffffffffffffffffffffffffff168173ffffffffffffffffffffffffffffffffffffffff167f8be0079c531659141344cd1fd0a4f28419497f9722a3daafe3b4186f6b6457e060405160405180910390a35050565b600081519050919050565b7f4e487b7100000000000000000000000000000000000000000000000000000000600052604160045260246000fd5b7f4e487b7100000000000000000000000000000000000000000000000000000000600052602260045260246000fd5b6000600282049050600182168061027657607f821691505b6020821081036102895761028861022f565b5b50919050565b60008190508160005260206000209050919050565b60006020601f8301049050919050565b600082821b905092915050565b6000600883026102f17fffffffffffffffffffffffffffffffffffffffffffffffffffffffffffffffff826102b4565b6102fb86836102b4565b95508019841693508086168417925050509392505050565b6000819050919050565b6000819050919050565b600061034261033d61033884610313565b61031d565b610313565b9050919050565b6000819050919050565b61035c83610327565b61037061036882610349565b8484546102c1565b825550505050565b600090565b610385610378565b610390818484610353565b505050565b5b818110156103b4576103a960008261037d565b600181019050610396565b5050565b601f8211156103f9576103ca8161028f565b6103d3846102a4565b810160208510156103e2578190505b6103f66103ee856102a4565b830182610395565b50505b505050565b600082821c905092915050565b600061041c600019846008026103fe565b1980831691505092915050565b6000610435838361040b565b9150826002028217905092915050565b61044e826101f5565b67ffffffffffffffff81111561046757610466610200565b5b610471825461025e565b61047c8282856103b8565b600060209050601f8311600181146104af576000841561049d578287015190505b6104a78582610429565b86555061050f565b601f1984166104bd8661028f565b60005b828110156104e5578489015182556001820191506020850194506020810190506104c0565b8683101561050257848901516104fe601f89168261040b565b8355505b6001600288020188555050505b505050505050565b600073ffffffffffffffffffffffffffffffffffffffff82169050919050565b600061054282610517565b9050919050565b61055281610537565b82525050565b600060208201905061056d6000830184610549565b92915050565b61227b806105826000396000f3fe608060405234801561001057600080fd5b50600436106101165760003560e01c8063715018a6116100a2578063b88d4fde11610071578063b88d4fde146102df578063c87b56dd146102fb578063d082e3811461032b578063e985e9c514610349578063f2fde38b1461037957610116565b8063715018a61461027d5780638da5cb5b1461028757806395d89b41146102a5578063a22cb465146102c357610116565b806323b872dd116100e957806323b872dd146101b557806342842e0e146101d157806354ba0f27146101ed5780636352211e1461021d57806370a082311461024d57610116565b806301ffc9a71461011b57806306fdde031461014b578063081812fc14610169578063095ea7b314610199575b600080fd5b610135600480360381019061013091906119e2565b610395565b6040516101429190611a2a565b60405180910390f35b610153610477565b6040516101609190611ad5565b60405180910390f35b610183600480360381019061017e9190611b2d565b610509565b6040516101909190611b9b565b60405180910390f35b6101b360048036038101906101ae9190611be2565b610525565b005b6101cf60048036038101906101ca9190611c22565b61053b565b005b6101eb60048036038101906101e69190611c22565b61063d565b005b61020760048036038101906102029190611c75565b61065d565b6040516102149190611cb1565b60405180910390f35b61023760048036038101906102329190611b2d565b61074c565b6040516102449190611b9b565b60405180910390f35b61026760048036038101906102629190611c75565b61075e565b6040516102749190611cb1565b60405180910390f35b610285610818565b005b61028f61082c565b60405161029c9190611b9b565b60405180910390f35b6102ad610856565b6040516102ba9190611ad5565b60405180910390f35b6102dd60048036038101906102d89190611cf8565b6108e8565b005b6102f960048036038101906102f49190611e6d565b6108fe565b005b61031560048036038101906103109190611b2d565b610923565b6040516103229190611ad5565b60405180910390f35b61033361098c565b6040516103409190611cb1565b60405180910390f35b610363600480360381019061035e9190611ef0565b610992565b6040516103709190611a2a565b60405180910390f35b610393600480360381019061038e9190611c75565b610a26565b005b60007f80ac58cd000000000000000000000000000000000000000000000000000000007bffffffffffffffffffffffffffffffffffffffffffffffffffffffff1916827bffffffffffffffffffffffffffffffffffffffffffffffffffffffff1916148061046057507f5b5e139f000000000000000000000000000000000000000000000000000000007bffffffffffffffffffffffffffffffffffffffffffffffffffffffff1916827bffffffffffffffffffffffffffffffffffffffffffffffffffffffff1916145b80610470575061046f82610aac565b5b9050919050565b60606000805461048690611f5f565b80601f01602080910402602001604051908101604052809291908181526020018280546104b290611f5f565b80156104ff5780601f106104d4576101008083540402835291602001916104ff565b820191906000526020600020905b8154815290600101906020018083116104e257829003601f168201915b5050505050905090565b600061051482610b16565b5061051e82610b9e565b9050919050565b6105378282610532610bdb565b610be3565b5050565b600073ffffffffffffffffffffffffffffffffffffffff168273ffffffffffffffffffffffffffffffffffffffff16036105ad5760006040517f64a0ae920000000000000000000000000000000000000000000000000000000081526004016105a49190611b9b565b60405180910390fd5b60006105c183836105bc610bdb565b610bf5565b90508373ffffffffffffffffffffffffffffffffffffffff168173ffffffffffffffffffffffffffffffffffffffff1614610637578382826040517f64283d7b00000000000000000000000000000000000000000000000000000000815260040161062e93929190611f90565b60405180910390fd5b50505050565b610658838383604051806020016040528060008152506108fe565b505050565b6000610667610e0f565b600073ffffffffffffffffffffffffffffffffffffffff168273ffffffffffffffffffffffffffffffffffffffff16036106d6576040517f08c379a00000000000000000000000000000000000000000000000000000000081526004016106cd90612013565b60405180910390fd5b600060075490506106e78382610e96565b600760008154809291906106fa90612062565b9190505550808373ffffffffffffffffffffffffffffffffffffffff167f4cc0a9c4a99ddc700de1af2c9f916a7cbfdb71f14801ccff94061ad1ef8a804060405160405180910390a380915050919050565b600061075782610b16565b9050919050565b60008073ffffffffffffffffffffffffffffffffffffffff168273ffffffffffffffffffffffffffffffffffffffff16036107d15760006040517f89c62b640000000000000000000000000000000000000000000000000000000081526004016107c89190611b9b565b60405180910390fd5b600360008373ffffffffffffffffffffffffffffffffffffffff1673ffffffffffffffffffffffffffffffffffffffff168152602001908152602001600020549050919050565b610820610e0f565b61082a6000610eb4565b565b6000600660009054906101000a900473ffffffffffffffffffffffffffffffffffffffff16905090565b60606001805461086590611f5f565b80601f016020809104026020016040519081016040528092919081815260200182805461089190611f5f565b80156108de5780601f106108b3576101008083540402835291602001916108de565b820191906000526020600020905b8154815290600101906020018083116108c157829003601f168201915b5050505050905090565b6108fa6108f3610bdb565b8383610f7a565b5050565b61090984848461053b565b61091d610914610bdb565b858585856110e9565b50505050565b606061092e82610b16565b50600061093961129a565b905060008151116109595760405180602001604052806000815250610984565b80610963846112b1565b6040516020016109749291906120e6565b6040516020818303038152906040525b915050919050565b60075481565b6000600560008473ffffffffffffffffffffffffffffffffffffffff1673ffffffffffffffffffffffffffffffffffffffff16815260200190815260200160002060008373ffffffffffffffffffffffffffffffffffffffff1673ffffffffffffffffffffffffffffffffffffffff16815260200190815260200160002060009054906101000a900460ff16905092915050565b610a2e610e0f565b600073ffffffffffffffffffffffffffffffffffffffff168173ffffffffffffffffffffffffffffffffffffffff1603610aa05760006040517f1e4fbdf7000000000000000000000000000000000000000000000000000000008152600401610a979190611b9b565b60405180910390fd5b610aa981610eb4565b50565b60007f01ffc9a7000000000000000000000000000000000000000000000000000000007bffffffffffffffffffffffffffffffffffffffffffffffffffffffff1916827bffffffffffffffffffffffffffffffffffffffffffffffffffffffff1916149050919050565b600080610b228361137f565b9050600073ffffffffffffffffffffffffffffffffffffffff168173ffffffffffffffffffffffffffffffffffffffff1603610b9557826040517f7e273289000000000000000000000000000000000000000000000000000000008152600401610b8c9190611cb1565b60405180910390fd5b80915050919050565b60006004600083815260200190815260200160002060009054906101000a900473ffffffffffffffffffffffffffffffffffffffff169050919050565b600033905090565b610bf083838360016113bc565b505050565b600080610c018461137f565b9050600073ffffffffffffffffffffffffffffffffffffffff168373ffffffffffffffffffffffffffffffffffffffff1614610c4357610c42818486611581565b5b600073ffffffffffffffffffffffffffffffffffffffff168173ffffffffffffffffffffffffffffffffffffffff1614610cd457610c856000856000806113bc565b6001600360008373ffffffffffffffffffffffffffffffffffffffff1673ffffffffffffffffffffffffffffffffffffffff168152602001908152602001600020600082825403925050819055505b600073ffffffffffffffffffffffffffffffffffffffff168573ffffffffffffffffffffffffffffffffffffffff1614610d57576001600360008773ffffffffffffffffffffffffffffffffffffffff1673ffffffffffffffffffffffffffffffffffffffff168152602001908152602001600020600082825401925050819055505b846002600086815260200190815260200160002060006101000a81548173ffffffffffffffffffffffffffffffffffffffff021916908373ffffffffffffffffffffffffffffffffffffffff160217905550838573ffffffffffffffffffffffffffffffffffffffff168273ffffffffffffffffffffffffffffffffffffffff167fddf252ad1be2c89b69c2b068fc378daa952ba7f163c4a11628f55a4df523b3ef60405160405180910390a4809150509392505050565b610e17610bdb565b73ffffffffffffffffffffffffffffffffffffffff16610e3561082c565b73ffffffffffffffffffffffffffffffffffffffff1614610e9457610e58610bdb565b6040517f118cdaa7000000000000000000000000000000000000000000000000000000008152600401610e8b9190611b9b565b60405180910390fd5b565b610eb0828260405180602001604052806000815250611645565b5050565b6000600660009054906101000a900473ffffffffffffffffffffffffffffffffffffffff16905081600660006101000a81548173ffffffffffffffffffffffffffffffffffffffff021916908373ffffffffffffffffffffffffffffffffffffffff1602179055508173ffffffffffffffffffffffffffffffffffffffff168173ffffffffffffffffffffffffffffffffffffffff167f8be0079c531659141344cd1fd0a4f28419497f9722a3daafe3b4186f6b6457e060405160405180910390a35050565b600073ffffffffffffffffffffffffffffffffffffffff168273ffffffffffffffffffffffffffffffffffffffff1603610feb57816040517f5b08ba18000000000000000000000000000000000000000000000000000000008152600401610fe29190611b9b565b60405180910390fd5b80600560008573ffffffffffffffffffffffffffffffffffffffff1673ffffffffffffffffffffffffffffffffffffffff16815260200190815260200160002060008473ffffffffffffffffffffffffffffffffffffffff1673ffffffffffffffffffffffffffffffffffffffff16815260200190815260200160002060006101000a81548160ff0219169083151502179055508173ffffffffffffffffffffffffffffffffffffffff168373ffffffffffffffffffffffffffffffffffffffff167f17307eab39ab6107e8899845ad3d59bd9653f200f220920489ca2b5937696c31836040516110dc9190611a2a565b60405180910390a3505050565b60008373ffffffffffffffffffffffffffffffffffffffff163b1115611293578273ffffffffffffffffffffffffffffffffffffffff1663150b7a02868685856040518563ffffffff1660e01b8152600401611148949392919061215f565b6020604051808303816000875af192505050801561118457506040513d601f19601f8201168201806040525081019061118191906121c0565b60015b611208573d80600081146111b4576040519150601f19603f3d011682016040523d82523d6000602084013e6111b9565b606091505b50600081510361120057836040517f64a0ae920000000000000000000000000000000000000000000000000000000081526004016111f79190611b9b565b60405180910390fd5b805181602001fd5b63150b7a0260e01b7bffffffffffffffffffffffffffffffffffffffffffffffffffffffff1916817bffffffffffffffffffffffffffffffffffffffffffffffffffffffff19161461129157836040517f64a0ae920000000000000000000000000000000000000000000000000000000081526004016112889190611b9b565b60405180910390fd5b505b5050505050565b606060405180602001604052806000815250905090565b6060600060016112c084611669565b01905060008167ffffffffffffffff8111156112df576112de611d42565b5b6040519080825280601f01601f1916602001820160405280156113115781602001600182028036833780820191505090505b509050600082602001820190505b600115611374578080600190039150507f3031323334353637383961626364656600000000000000000000000000000000600a86061a8153600a8581611368576113676121ed565b5b0494506000850361131f575b819350505050919050565b60006002600083815260200190815260200160002060009054906101000a900473ffffffffffffffffffffffffffffffffffffffff169050919050565b80806113f55750600073ffffffffffffffffffffffffffffffffffffffff168273ffffffffffffffffffffffffffffffffffffffff1614155b1561152957600061140584610b16565b9050600073ffffffffffffffffffffffffffffffffffffffff168373ffffffffffffffffffffffffffffffffffffffff161415801561147057508273ffffffffffffffffffffffffffffffffffffffff168173ffffffffffffffffffffffffffffffffffffffff1614155b801561148357506114818184610992565b155b156114c557826040517fa9fbf51f0000000000000000000000000000000000000000000000000000000081526004016114bc9190611b9b565b60405180910390fd5b811561152757838573ffffffffffffffffffffffffffffffffffffffff168273ffffffffffffffffffffffffffffffffffffffff167f8c5be1e5ebec7d5bd14f71427d1e84f3dd0314c0f7b2291e5b200ac8c7c3b92560405160405180910390a45b505b836004600085815260200190815260200160002060006101000a81548173ffffffffffffffffffffffffffffffffffffffff021916908373ffffffffffffffffffffffffffffffffffffffff16021790555050505050565b61158c8383836117bc565b61164057600073ffffffffffffffffffffffffffffffffffffffff168373ffffffffffffffffffffffffffffffffffffffff160361160157806040517f7e2732890000000000000000000000000000000000000000000000000000000081526004016115f89190611cb1565b60405180910390fd5b81816040517f177e802f00000000000000000000000000000000000000000000000000000000815260040161163792919061221c565b60405180910390fd5b505050565b61164f838361187d565b61166461165a610bdb565b60008585856110e9565b505050565b600080600090507a184f03e93ff9f4daa797ed6e38ed64bf6a1f01000000000000000083106116c7577a184f03e93ff9f4daa797ed6e38ed64bf6a1f01000000000000000083816116bd576116bc6121ed565b5b0492506040810190505b6d04ee2d6d415b85acef81000000008310611704576d04ee2d6d415b85acef810000000083816116fa576116f96121ed565b5b0492506020810190505b662386f26fc10000831061173357662386f26fc100008381611729576117286121ed565b5b0492506010810190505b6305f5e100831061175c576305f5e1008381611752576117516121ed565b5b0492506008810190505b6127108310611781576127108381611777576117766121ed565b5b0492506004810190505b606483106117a4576064838161179a576117996121ed565b5b0492506002810190505b600a83106117b3576001810190505b80915050919050565b60008073ffffffffffffffffffffffffffffffffffffffff168373ffffffffffffffffffffffffffffffffffffffff161415801561187457508273ffffffffffffffffffffffffffffffffffffffff168473ffffffffffffffffffffffffffffffffffffffff16148061183557506118348484610992565b5b8061187357508273ffffffffffffffffffffffffffffffffffffffff1661185b83610b9e565b73ffffffffffffffffffffffffffffffffffffffff16145b5b90509392505050565b600073ffffffffffffffffffffffffffffffffffffffff168273ffffffffffffffffffffffffffffffffffffffff16036118ef5760006040517f64a0ae920000000000000000000000000000000000000000000000000000000081526004016118e69190611b9b565b60405180910390fd5b60006118fd83836000610bf5565b9050600073ffffffffffffffffffffffffffffffffffffffff168173ffffffffffffffffffffffffffffffffffffffff16146119715760006040517f73c6ac6e0000000000000000000000000000000000000000000000000000000081526004016119689190611b9b565b60405180910390fd5b505050565b6000604051905090565b600080fd5b600080fd5b60007fffffffff0000000000000000000000000000000000000000000000000000000082169050919050565b6119bf8161198a565b81146119ca57600080fd5b50565b6000813590506119dc816119b6565b92915050565b6000602082840312156119f8576119f7611980565b5b6000611a06848285016119cd565b91505092915050565b60008115159050919050565b611a2481611a0f565b82525050565b6000602082019050611a3f6000830184611a1b565b92915050565b600081519050919050565b600082825260208201905092915050565b60005b83811015611a7f578082015181840152602081019050611a64565b60008484015250505050565b6000601f19601f8301169050919050565b6000611aa782611a45565b611ab18185611a50565b9350611ac1818560208601611a61565b611aca81611a8b565b840191505092915050565b60006020820190508181036000830152611aef8184611a9c565b905092915050565b6000819050919050565b611b0a81611af7565b8114611b1557600080fd5b50565b600081359050611b2781611b01565b92915050565b600060208284031215611b4357611b42611980565b5b6000611b5184828501611b18565b91505092915050565b600073ffffffffffffffffffffffffffffffffffffffff82169050919050565b6000611b8582611b5a565b9050919050565b611b9581611b7a565b82525050565b6000602082019050611bb06000830184611b8c565b92915050565b611bbf81611b7a565b8114611bca57600080fd5b50565b600081359050611bdc81611bb6565b92915050565b60008060408385031215611bf957611bf8611980565b5b6000611c0785828601611bcd565b9250506020611c1885828601611b18565b9150509250929050565b600080600060608486031215611c3b57611c3a611980565b5b6000611c4986828701611bcd565b9350506020611c5a86828701611bcd565b9250506040611c6b86828701611b18565b9150509250925092565b600060208284031215611c8b57611c8a611980565b5b6000611c9984828501611bcd565b91505092915050565b611cab81611af7565b82525050565b6000602082019050611cc66000830184611ca2565b92915050565b611cd581611a0f565b8114611ce057600080fd5b50565b600081359050611cf281611ccc565b92915050565b60008060408385031215611d0f57611d0e611980565b5b6000611d1d85828601611bcd565b9250506020611d2e85828601611ce3565b9150509250929050565b600080fd5b600080fd5b7f4e487b7100000000000000000000000000000000000000000000000000000000600052604160045260246000fd5b611d7a82611a8b565b810181811067ffffffffffffffff82111715611d9957611d98611d42565b5b80604052505050565b6000611dac611976565b9050611db88282611d71565b919050565b600067ffffffffffffffff821115611dd857611dd7611d42565b5b611de182611a8b565b9050602081019050919050565b82818337600083830152505050565b6000611e10611e0b84611dbd565b611da2565b905082815260208101848484011115611e2c57611e2b611d3d565b5b611e37848285611dee565b509392505050565b600082601f830112611e5457611e53611d38565b5b8135611e64848260208601611dfd565b91505092915050565b60008060008060808587031215611e8757611e86611980565b5b6000611e9587828801611bcd565b9450506020611ea687828801611bcd565b9350506040611eb787828801611b18565b925050606085013567ffffffffffffffff811115611ed857611ed7611985565b5b611ee487828801611e3f565b91505092959194509250565b60008060408385031215611f0757611f06611980565b5b6000611f1585828601611bcd565b9250506020611f2685828601611bcd565b9150509250929050565b7f4e487b7100000000000000000000000000000000000000000000000000000000600052602260045260246000fd5b60006002820490506001821680611f7757607f821691505b602082108103611f8a57611f89611f30565b5b50919050565b6000606082019050611fa56000830186611b8c565b611fb26020830185611ca2565b611fbf6040830184611b8c565b949350505050565b7f43616e6e6f74206d696e7420746f20746865207a65726f206164647265737300600082015250565b6000611ffd601f83611a50565b915061200882611fc7565b602082019050919050565b6000602082019050818103600083015261202c81611ff0565b9050919050565b7f4e487b7100000000000000000000000000000000000000000000000000000000600052601160045260246000fd5b600061206d82611af7565b91507fffffffffffffffffffffffffffffffffffffffffffffffffffffffffffffffff820361209f5761209e612033565b5b600182019050919050565b600081905092915050565b60006120c082611a45565b6120ca81856120aa565b93506120da818560208601611a61565b80840191505092915050565b60006120f282856120b5565b91506120fe82846120b5565b91508190509392505050565b600081519050919050565b600082825260208201905092915050565b60006121318261210a565b61213b8185612115565b935061214b818560208601611a61565b61215481611a8b565b840191505092915050565b60006080820190506121746000830187611b8c565b6121816020830186611b8c565b61218e6040830185611ca2565b81810360608301526121a08184612126565b905095945050505050565b6000815190506121ba816119b6565b92915050565b6000602082840312156121d6576121d5611980565b5b60006121e4848285016121ab565b91505092915050565b7f4e487b7100000000000000000000000000000000000000000000000000000000600052601260045260246000fd5b60006040820190506122316000830185611b8c565b61223e6020830184611ca2565b939250505056fea26469706673582212204ed038c2d2cb356f8d6658ab6f375228c9535909ea2af0937f229bbf8806e63164736f6c634300081b0033",
  "linkReferences": {},
  "deployedLinkReferences": {}
}